:100000000C9434000C943E000C943E000C943E0082
:100010000C943E000C943E000C943E000C943E0068
:100020000C943E000C943E000C943E000C943E0058
:100030000C943E000C943E000C943E000C943E0048
:100040000C943E000C943E000C943E000C943E0038
:100050000C943E000C943E000C943E000C943E0028
:100060000C943E000C943E0011241FBECFEFD8E04C
:10007000DEBFCDBF0E9482000C948F000C94000064
:1000800084B1866084B9569A0895E1E8F0E08081F1
:1000900080618083A0E8B0E08C9182608C9383E1E2
:1000A00090E0909387008093860085E090E09093A5
:1000B00089008093880090938B0080938A008081D0
:1000C0008560808380818D7F80830895892B31F0C6
:1000D000E0E8F0E08081806880830895E0E8F0E067
:1000E000808180628083089584B5836084BD84B5F7
:1000F000806884BD80E887BD089516BC85B58260A0
:1001000085BD08950E9440000E9445000E94740031
:1001100080E090E00E9466000E947D00FFCFF8948E
:02012000FFCF0F
:00000001FF
