S01C000043757272656E745F436F6E74726F6C6C65725F432E7372656300
S11300000C9434000C9446000C9446000C94460066
S11300100C9446000C9446000C9446000C94460044
S11300200C9446000C9446000C9446000C94460034
S11300300C9446000C9446000C9446000C94460024
S11300400C9446000C9446000C9446000C94460014
S11300500C9446000C9446000C9446000C94460004
S11300600C9446000C94460011241FBECFEFD8E038
S1130070DEBFCDBF21E0A0E0B1E001C01D92AC34F1
S1130080B207E1F70E9402030C9413030C940000DE
S113009081E080932C0110920801109207011092C4
S11300A01901109209011092270110924701109230
S11300B01C0110923B011092260110923701089501
S11300C0BF92CF92DF92EF92FF920F931F93CF9341
S11300D0DF938091070190910801019789F41092B0
S11300E02C011092390110920B01909119019093F7
S11300F02001109242018091370180931D0113C0A9
S113010080912C018093390180930B019091190106
S11301109093200180934201A0913701A0931D0187
S1130120811119C18A2FC1E0811101C0C0E0C093BF
S113013028018823A9F0A82F80E010920F011092C3
S1130140020110923E0110922501109214011092A6
S11301504801109218011092120110921E0101C060
S1130160A82F90930A01992319F021E020930F01FD
S113017050910901509300013091150130934601CB
S1130180552309F4F7C0332309F4EAC0F3C021E08E
S1130190611104C020E002C010E021E0D22F2093BE
S11301A00401552309F40DC13111FCC00AC13111F8
S11301B014C1E32F1FC17091270170932101F091A5
S11301C03201F0930601772309F423C1FF2309F4D4
S11301D017C11FC1611105C061E0E11105C060E0F4
S11301E003C061E001C061E0062F6093350177230D
S11301F009F41BC1F11112C118C1E0914701E09348
S11302004901B0914B01B0932F01EE2309F41AC1B7
S1130210BB2309F40EC116C161E0F11103C060E013
S113022001C061E0E62E60930501EE2309F416C1D6
S1130230B1110DC113C1F0911C01F093330140932E
S11302403801FF2309F418C1442309F40BC114C174
S113025041111EC125C160913B0160933C01B091E5
S11302601601B0932201662309F425C1BB2309F4C6
S11302701BC121C1112309F428C1411120C125C189
S1130280222309F426C1332309F42EC122C1D1103B
S113029009C0C11009C0411109C041E0B11007C033
S11302A040E005C041E003C041E001C041E0D42E7C
S11302B040932B01662309F437C1B1112BC134C11A
S11302C0112309F43EC1332309F434C13AC1411165
S11302D005C031E0B11103C030E001C031E0432F6B
S11302E03093130191110FC051110FC071110FC040
S11302F061110FC0E1110FC021110FC091E0FF2364
S113030069F090E00BC090E009C090E007C090E075
S113031005C090E003C090E001C090E090932901F3
S113032091E0A11190E090930D0180931901D09375
S1130330090100932701E0924701F0921C01D09239
S11303403B0140932601C093370190E0909308014C
S1130350809307010FC121E020932801C1E0EDCE75
S113036021E02093410140910C0140931A01442360
S113037071F014C01092410140910C0140931A0194
S113038010923A01911108CF692F192F00CF21E063
S113039020933A0120930F0161E0DDC010923A01ED
S11303A0632FD9C021E020931F01209325012091C0
S11303B026012093010130933601211110C0E1E0A0
S11303C019C010921F01209126012093010130933E
S11303D036012111ECCEE22F0DC0E0E001C0E1E0D6
S11303E061E060932E0160931E016093430160936A
S11303F02501E1CE10922E011092430160E0DBCE84
S1130400B1E0B0930301B0932501E111A8C0E1E08C
S1130410E1CE10920301E111E6CEDCCE61E06093FF
S1130420340160931401F1E0E8CE10923401F0E05D
S1130430E4CE61E060934A0160931401F11194C029
S1130440F1E0EACE10924A01F111EBCEE5CE61E083
S113045060933F0160934801B1E0EDCE10923F01FB
S1130460B0E0E9CE61E060933D01609348016093A0
S11304700E01FF24F39414C010923D0161E0B11108
S113048001C060E0F62E60930E01FF2349F0E0CE38
S113049061E06093240160930201CC24C394DBCE19
S11304A010922401C12CD7CEDD24D394D0924501DF
S11304B0D0920201DFCE10924501D12CDBCE41E077
S11304C04093440140930201DBCE1092440140E08A
S11304D0D7CE10921B013091300130931701109246
S11304E04001B12C10E0D3CE31E030931B013091A8
S11304F0300130931701332341F011E01093400190
S113050010930201BB24B394C2CE10924001B32EC7
S113051011E0BDCE41E04093100140931801409397
S11305202D0140933E01CCCE1092100110922D016A
S113053040E0C6CE31E03093230130933E01B1E078
S1130540C6CE10922301B0E0C2CE21E02093040174
S113055011E0D1E036CF9111F8CF11E018CE61E06F
S11305606093350101E061CF61E060930501EE2401
S1130570E39474CFDF91CF911F910F91FF90EF908F
S1130580DF90CF90BF90089584B5836084BD85B516
S1130590877F85BD89E187BD88BD08959C0195B598
S11305A0956095BD95B59D7F95BD2130310561F46C
S11305B084B5806884BD84B58F7B84BD84B58F7C0D
S11305C084BD89E188BD0895232B59F484B58062E4
S11305D084BD84B58F7E84BD84B58F7384BD89E169
S11305E087BD08959093C5008093C40088E18093EB
S11305F0C10086E08093C200089584B1866084B906
S1130600569A08950E9448000E94FD020E94C40266
S113061083E390E00E94F20280E090E00E94CE0228
S10D06200E946000FDCFF894FFCFA4
S9030000FC
