:100000000C9434000C9446000C9446000C9446006A
:100010000C9446000C9446000C9446000C94690322
:100020000C9446000C9446000C9446000C94460038
:100030000C9446000C9446000C9446000C94460028
:100040000C9446000C9446000C9446000C94460018
:100050000C9446000C9446000C9446000C94460008
:100060000C9446000C94460011241FBECFEFD8E03C
:10007000DEBFCDBF21E0A0E0B1E001C01D92AE34F3
:10008000B207E1F70E94F1030C9418040C940000ED
:1000900081E080932E0110920A01109209011092C2
:1000A0001B0110920B01109229011092490110922C
:1000B0001E0110923D0110922801109239010895FD
:1000C000BF92CF92DF92EF92FF920F931F93CF9345
:1000D000DF938091090190910A01019789F41092B0
:1000E0002E0110923B0110920D0190911B019093F3
:1000F0002201109244018091390180931F0113C0A5
:1001000080912E0180933B0180930D0190911B0102
:100110009093220180934401A0913901A0931F0183
:10012000811119C18A2FC1E0811101C0C0E0C093C3
:100130002A018823A9F0A82F80E0109211011092C3
:1001400004011092400110922701109216011092A2
:100150004A0110921A01109214011092200101C05C
:10016000A82F90930C01992319F021E020931101FD
:1001700050910B01509302013091170130934801C7
:10018000552309F4F7C0332309F4EAC0F3C021E092
:10019000611104C020E002C010E021E0D22F2093C2
:1001A0000601552309F40DC13111FCC00AC13111FA
:1001B00014C1E32F1FC17091290170932301F091A5
:1001C0003401F0930801772309F423C1FF2309F4D4
:1001D00017C11FC1611105C061E0E11105C060E0F8
:1001E00003C061E001C061E0062F6093370177230F
:1001F00009F41BC1F11112C118C1E0914901E0934A
:100200004B01B0914D01B0933101EE2309F41AC1B5
:10021000BB2309F40EC116C161E0F11103C060E017
:1002200001C061E0E62E60930701EE2309F416C1D8
:10023000B1110DC113C1F0911E01F093350140932E
:100240003A01FF2309F418C1442309F40BC114C176
:1002500041111EC125C160913D0160933E01B091E5
:100260001801B0932401662309F425C1BB2309F4C6
:100270001BC121C1112309F428C1411120C125C18D
:10028000222309F426C1332309F42EC122C1D1103F
:1002900009C0C11009C0411109C041E0B11007C037
:1002A00040E005C041E003C041E001C041E0D42E80
:1002B00040932D01662309F437C1B1112BC134C11C
:1002C000112309F43EC1332309F434C13AC1411169
:1002D00005C031E0B11103C030E001C031E0432F6F
:1002E0003093150191110FC051110FC071110FC042
:1002F00061110FC0E1110FC021110FC091E0FF2368
:1003000069F090E00BC090E009C090E007C090E079
:1003100005C090E003C090E001C090E090932B01F5
:1003200091E0A11190E090930F0180931B01D09375
:100330000B0100932901E0924901F0921E01D09235
:100340003D0140932801C093390190E090930A0148
:10035000809309010FC121E020932A01C1E0EDCE75
:1003600021E02093430140910E0140931C0144235E
:1003700071F014C01092430140910E0140931C0192
:1003800010923C01911108CF692F192F00CF21E065
:1003900020933C012093110161E0DDC010923C01EB
:1003A000632FD9C021E020932101209327012091C0
:1003B00028012093030130933801211110C0E1E09E
:1003C00019C010922101209128012093030130933C
:1003D00038012111ECCEE22F0DC0E0E001C0E1E0D8
:1003E00061E0609330016093200160934501609368
:1003F0002701E1CE109230011092450160E0DBCE82
:10040000B1E0B0930501B0932701E111A8C0E1E08C
:10041000E1CE10920501E111E6CEDCCE61E0609301
:10042000360160931601F1E0E8CE10923601F0E05B
:10043000E4CE61E060934C0160931601F11194C029
:10044000F1E0EACE10924C01F111EBCEE5CE61E085
:100450006093410160934A01B1E0EDCE10924101F9
:10046000B0E0E9CE61E060933F0160934A016093A0
:100470001001FF24F39414C010923F0161E0B11108
:1004800001C060E0F62E60931001FF2349F0E0CE3A
:1004900061E06093260160930401CC24C394DBCE19
:1004A00010922601C12CD7CEDD24D394D0924701DF
:1004B000D0920401DFCE10924701D12CDBCE41E077
:1004C0004093460140930401DBCE1092460140E088
:1004D000D7CE10921D013091320130931901109244
:1004E0004201B12C10E0D3CE31E030931D013091A8
:1004F000320130931901332341F011E0109342018E
:1005000010930401BB24B394C2CE10924201B32EC7
:1005100011E0BDCE41E04093120140931A01409397
:100520002F0140934001CCCE1092120110922F0166
:1005300040E0C6CE31E03093250130934001B1E078
:10054000C6CE10922501B0E0C2CE21E02093060174
:1005500011E0D1E036CF9111F8CF11E018CE61E073
:100560006093370101E061CF61E060930701EE2401
:10057000E39474CFDF91CF911F910F91FF90EF9093
:10058000DF90CF90BF9008959093C5008093C400F2
:1005900088E18093C10086E08093C2000895E0EC7A
:1005A000F0E0908195FFFDCF8093C60008958F9273
:1005B0009F92AF92BF92CF92DF92EF92FF92CF9332
:1005C000DF934115510561057105A1F04A015B01F9
:1005D000C82FD92FC12CD12C760189910E94CF022E
:1005E0008FEFC81AD80AE80AF80A8C149D04AE04E2
:1005F000BF0499F7DF91CF91FF90EF90DF90CF90FC
:10060000BF90AF909F908F900895CF92DF92EF921E
:10061000FF92AC01892B31F4FB011082C12CD12C4B
:10062000760132C0FB01C12CD12C76019A01ADECD0
:10063000BCEC0E94090496958795969587959695AA
:1006400087959C01220F331F880F991F880F991FD0
:10065000880F991F820F931F9A01281B390BC9011C
:10066000805D81939A010E940904AC0156954795DB
:1006700056954795569547953FEFC31AD30AE30A17
:10068000F30A4115510591F6C701B601FF90EF90AD
:10069000DF90CF900895CF93DF93CDB7DEB72A9741
:1006A0000FB6F894DEBF0FBECDBFBE016F5F7F4FA8
:1006B0000E940503AB01BC01CE0101960E94D70246
:1006C0002A960FB6F894DEBF0FBECDBFDF91CF9153
:1006D00008951F920F920FB60F9211242F933F93FC
:1006E0004F935F936F937F938F939F93AF93BF933A
:1006F000EF93FF9388E590E00E944B038091000107
:1007000090910101809100019091010101969093D7
:10071000010180930001FF91EF91BF91AF919F91F3
:100720008F917F916F915F914F913F912F910F909A
:100730000FBE0F901F901895E0EBF0E08081826073
:1007400080838CE78093B300E0E7F0E080818260F3
:100750008083E1EBF0E0808184608083089584B140
:10076000866084B9569A0895E0E8F0E0808183605D
:100770008083E1E8F0E080818861808384E891E013
:10078000909387008093860082EC90E0909389009C
:100790008093880090938B0080938A00808185608D
:1007A000808380818D7F80830895892B31F0E0E8FC
:1007B000F0E08081806880830895E0E8F0E0808147
:1007C00080628083089584B5836084BD84B5806829
:1007D00084BD80E887BD089516BC85B5826085BD5F
:1007E00008950E9448000E949C030E94AF030E944B
:1007F000B4030E94E30383E390E00E94C40280E01C
:1008000090E00E94D5030E94EC0378940E9460005F
:10081000FDCFA29FB001B39FC001A39F700D811DAA
:100820001124911DB29F700D811D1124911D0895F9
:04083000F894FFCF6A
:00000001FF
