:100000000C9434000C9451000C9451000C94510049
:100010000C9451000C9451000C9451000C9451001C
:100020000C9451000C9451000C9451000C946603F4
:100030000C9451000C9451000C9452030C945C03EA
:100040000C9470030C9451000C9451000C945100CA
:100050000C9451000C9451000C9451000C945100DC
:100060000C9451000C94510011241FBECFEFD8E026
:10007000DEBFCDBF11E0A0E0B1E0E2E0F8E002C0F9
:1000800005900D92A230B107D9F721E0A2E0B1E0CE
:1000900001C01D92A035B207E1F70E94C1030C9484
:1000A000FF030C94000081E08093300110920C015A
:1000B00010920B0110921D0110920D0110922B0154
:1000C00010924B011092200110923F0110922A01D0
:1000D00010923B010895BF92CF92DF92EF92FF9270
:1000E0000F931F93CF93DF9380910B0190910C019D
:1000F000019789F41092300110923D0110920F0186
:1001000090911D01909324011092460180913B0132
:100110008093210113C08091300180933D01809331
:100120000F0190911D019093240180934601A091AD
:100130003B01A0932101811119C18A2FC1E08111D6
:1001400001C0C0E0C0932C018823A9F0A82F80E053
:10015000109213011092060110924201109229018F
:100160001092180110924C0110921C01109216016D
:100170001092220101C0A82F90930E01992319F02B
:1001800021E02093130150910D015093040130910F
:10019000190130934A01552309F4F7C0332309F4B8
:1001A000EAC0F3C021E0611104C020E002C010E009
:1001B00021E0D22F20930801552309F40DC13111FC
:1001C000FCC00AC1311114C1E32F1FC170912B0172
:1001D00070932501F0913601F0930A01772309F419
:1001E00023C1FF2309F417C11FC1611105C061E0DC
:1001F000E11105C060E003C061E001C061E0062FCD
:1002000060933901772309F41BC1F11112C118C1A0
:10021000E0914B01E0934D01B0914F01B093330158
:10022000EE2309F41AC1BB2309F40EC116C161E023
:10023000F11103C060E001C061E0E62E60930901A6
:10024000EE2309F416C1B1110DC113C1F0912001C3
:10025000F093370140933C01FF2309F418C1442374
:1002600009F40BC114C141111EC125C160913F01A8
:1002700060934001B0911A01B0932601662309F4FE
:1002800025C1BB2309F41BC121C1112309F428C1D5
:10029000411120C125C1222309F426C1332309F4C9
:1002A0002EC122C1D11009C0C11009C0411109C01D
:1002B00041E0B11007C040E005C041E003C041E0AB
:1002C00001C041E0D42E40932F01662309F437C1C9
:1002D000B1112BC134C1112309F43EC1332309F4F8
:1002E00034C13AC1411105C031E0B11103C030E061
:1002F00001C031E0432F3093170191110FC051110C
:100300000FC071110FC061110FC0E1110FC0211199
:100310000FC091E0FF2369F090E00BC090E009C0AE
:1003200090E007C090E005C090E003C090E001C0FD
:1003300090E090932D0191E0A11190E09093110134
:1003400080931D01D0930D0100932B01E0924B018E
:10035000F0922001D0923F0140932A01C0933B01CB
:1003600090E090930C0180930B010FC121E020934A
:100370002C01C1E0EDCE21E0209345014091100118
:1003800040931E01442371F014C010924501409126
:10039000100140931E0110923E01911108CF692F68
:1003A000192F00CF21E020933E012093130161E03B
:1003B000DDC010923E01632FD9C021E020932301BC
:1003C0002093290120912A012093050130933A01BD
:1003D000211110C0E1E019C01092230120912A01DF
:1003E0002093050130933A012111ECCEE22F0DC08C
:1003F000E0E001C0E1E061E060933201609322013E
:100400006093470160932901E1CE1092320110926E
:10041000470160E0DBCEB1E0B0930701B093290162
:10042000E111A8C0E1E0E1CE10920701E111E6CEB2
:10043000DCCE61E06093380160931801F1E0E8CE12
:1004400010923801F0E0E4CE61E060934E016093D9
:100450001801F11194C0F1E0EACE10924E01F111B1
:10046000EBCEE5CE61E06093430160934C01B1E0D7
:10047000EDCE10924301B0E0E9CE61E0609341011E
:1004800060934C0160931201FF24F39414C0109206
:10049000410161E0B11101C060E0F62E60931201EC
:1004A000FF2349F0E0CE61E06093280160930601EC
:1004B000CC24C394DBCE10922801C12CD7CEDD24EE
:1004C000D394D0924901D0920601DFCE1092490117
:1004D000D12CDBCE41E04093480140930601DBCEB6
:1004E0001092480140E0D7CE10921F0130913401A4
:1004F00030931B0110924401B12C10E0D3CE31E0B7
:1005000030931F013091340130931B01332341F0AC
:1005100011E01093440110930601BB24B394C2CEA2
:1005200010924401B32E11E0BDCE41E0409314017E
:1005300040931C014093310140934201CCCE109274
:1005400014011092310140E0C6CE31E03093270112
:1005500030934201B1E0C6CE10922701B0E0C2CE86
:1005600021E02093080111E0D1E036CF9111F8CFBE
:1005700011E018CE61E06093390101E061CF61E0E4
:1005800060930901EE24E39474CFDF91CF911F9122
:100590000F91FF90EF90DF90CF90BF90089584B5BA
:1005A000836084BD85B5877F85BD89E187BD88BDB2
:1005B00008959C0195B5956095BD95B59D7F95BDB8
:1005C0002130310509F04FC06115710581F584B501
:1005D000806884BD84B58F7B84BD84B58F7C84BDE9
:1005E000EEE6F0E080818460808380818D7F80836F
:1005F00089E188BD8081816080830895672BA9F59A
:1006000084B5806284BD84B58F7E84BD84B58F73CC
:1006100084BDEEE6F0E080818260808380818B7F04
:10062000808389E187BD8081816080830895613006
:100630007105D9F48FE787BD84B5806884BD84B522
:100640008F7B84BD84B58F7C84BDEEE6F0E0808135
:100650008460808380818D7F808389E188BD8081F3
:100660008E7F80830895232B49F20895E1E8F0E01E
:100670008081877E8083A0E8B0E08C918C7F8C9312
:1006800080818560808380818D7F808308959093B1
:10069000C5008093C40088E18093C10086E0809308
:1006A000C20008951F920F920FB60F9211240F905F
:1006B0000FBE0F901F9018951F920F920FB60F92BA
:1006C00011240F900FBE0F901F9018951F920F923C
:1006D0000FB60F9211240F900FBE0F901F90189518
:1006E0001F920F920FB60F9211242F933F934F93A7
:1006F0005F936F937F938F939F93AF93BF938091FB
:100700000201909103010A9701F5209100013091B7
:1007100001014FEF429FC001439F900D112424E639
:1007200030E0B9010E94D70367BD8091000190912C
:1007300001010A96B9010E94D703909301018093A9
:100740000001109203011092020180910201909128
:10075000030101969093030180930201BF91AF9131
:100760009F918F917F916F915F914F913F912F91C9
:100770000F900FBE0F901F9018958AB180668AB9AE
:1007800008950E9453000E94BD030E94CF020E9460
:10079000360383E390E00E944703789461E070E0C1
:1007A00081E090E00E94D9020E946B00FDCF97FB90
:1007B000072E16F4009407D077FD09D00E94EB03B2
:1007C00007FC05D03EF4909581959F4F0895709554
:1007D00061957F4F0895AA1BBB1B51E107C0AA1F5B
:1007E000BB1FA617B70710F0A61BB70B881F991FD2
:1007F0005A95A9F780959095BC01CD010895F8947C
:02080000FFCF28
:020802003200C2
:00000001FF
